:030000000203F107
:0C03F100787FE4F6D8FD75812502043801
:1005E80010143031323334353637383941424344C8
:0205F800454676
:1000030075895112050612047D1202DE7B52E4FD4E
:10001300FF120560AE0CAF0D7C007D6412018EEF04
:100023002430FB7D01E4FF120560AE0CAF0D7C00B4
:100033007D0A12018E7C007D0A12018EED2430FBB5
:100043007D02E4FF120560AE0CAF0D7C007D0A1249
:10005300018EED2430FB7D03E4FF1205607B477DB9
:1000630005E4FF120560AE0AAF0B7C007D6412014C
:100073008EEF2430FB7D06E4FF120560AE0AAF0B62
:100083007C007D0A12018E7C007D0A12018EED2414
:1000930030FB7D07E4FF120560AE0AAF0B7C007DE9
:1000A3000A12018EED2430FB7D08E4FF1205607B0C
:1000B300427D0AE4FF120560AE08AF097C007D644F
:1000C30012018EEF2430FB7D0BE4FF120560AE08B6
:1000D300AF097C007D0A12018E7C007D0A12018E1D
:1000E300ED2430FB7D0CE4FF120560AE08AF097C04
:1000F300007D0A12018EED2430FB7D0DE4FF120515
:1001030060E50CC4F854F0C8E50D7D01120555E512
:100113000D540F2414F8E6FB7D027F011205607B6A
:10012300487D037F01120560E50AC4F854F0C8E571
:100133000B7D06120555E50D540F2414F8E6FB7DDF
:10014300077F011205607B487D087F01120560E58A
:1001530008C4F854F0C8E509C4540F482414F8E659
:10016300FB7D0B7F01120560E509540F2414F8E6AB
:10017300FB7D0C7F011205607B487D0D7F0112051D
:0B018300607F507E0012058402000C1B
:1002DE00758CD8758AF0E4F58DF58BC290C291C2FB
:1002EE00B0D28CD28E308DFDC28DC28CC28EAF8DAF
:1002FE00EFFEAD8B7C00E42DFFEC3EFE7DFF120287
:10030E00B1C006C007AE12AF13AB07AA06E4F9F8E8
:10031E00D007D00612021F8E0C8F0DD3E50D94FF61
:10032E00E50C94004006750C00750DFF758CD875A4
:10033E008AF0E4F58DF58BC290D291D28CD28E30AC
:10034E008DFDC28DC28CC28EAF8DEFFEAD8B7C004B
:10035E00E42DFFEC3EFE7DFF1202B1C006C007AEDB
:10036E000EAF0FAB07AA06E4F9F8D007D0061202BB
:10037E001F8E088F09D3E50994FFE5089400400607
:10038E007508007509FF758CD8758AF0E4F58DF542
:10039E008BD290D291D28CD28E308DFDC28DC28CEA
:1003AE00C28ED2B0AF8DEFFEAD8B7C00E42DFFEC94
:1003BE003EFE7DFF1202B1C006C007AE10AF11ABFC
:1003CE0007AA06E4F9F8D007D00612021F8E0A8F8C
:1003DE000BD3E50B94FFE50A94004006750A0075F1
:0303EE000BFF22E0
:10047D00758CD8758AF0E4F58DF58BC290C291C25A
:10048D00B0D28CD28E308DFDC28DC28CC28EAF8D0E
:10049D00EFFEAD8B7C00E42DF513EC3EF512758C63
:1004AD00D8758AF0E4F58DF58BC290D291D28CD2AD
:1004BD008E308DFDC28DC28CC28EAF8DEFFEAD8B99
:1004CD007C00E42DF50FEC3EF50E758CD8758AF099
:1004DD00E4F58DF58BD290D291D28CD28E308DFDEC
:1004ED00C28DC28CC28ED2B0AF8DEFFEAD8B7C00B3
:0904FD00E42DF511EC3EF510228E
:10050600E4F5A0FDFC7F381205A9120580E4FDFC88
:100516007F381205A9120580E4FDFC7F381205A973
:100526001205807F381205A57F081205A57D017C7E
:10053600007F011205A97D017C007F061205A97DB9
:0F054600017C007F0C1205A97F0A7E000205844C
:1005D5008F251205C08525A0D287C286C285C28512
:0305E500D285229A
:0405A5007D017C0058
:1005A9008F25ED4C60031205C08525A0C287C28640
:0705B900C285C285D2852234
:1005C00075A0FFC287D286C285C285D285E5A020EC
:0505D000E7FBAFA022D3
:0B055500C4540F482414F8E6FB7F019B
:100560008B24AE0553070153060FEF60034306408B
:10057000430680AF06E4FDFC1205A9AF240205D5B1
:040580007F057E0075
:10058400E4FDFCC3ED9FEC9E50167BFA7A00EB1B56
:100594008A8370011A458370F50DBD00010C80E358
:0105A4002234
:1003FD00020003E493A3F8E493A34003F68001F213
:10040D0008DFF48029E493A3F85407240CC8C33300
:10041D00C4540F4420C8834004F456800146F6DFCF
:10042D00E4800B01020408102040809005E8E47E72
:10043D00019360BCA3FF543F30E509541FFEE493C4
:10044D00A360010ECF54C025E060A840B8E493A38B
:10045D00FAE493A3F8E493A3C8C582C8CAC583CAB6
:10046D00F0A3C8C582C8CAC583CADFE9DEE780BE6E
:0105FA000000
:10018E00BC000BBE0029EF8DF084FFADF022E4CC55
:10019E00F875F008EF2FFFEE33FEEC33FCEE9DEC1E
:1001AE00984005FCEE9DFE0FD5F0E9E4CEFD22ED64
:1001BE00F8F5F0EE8420D21CFEADF075F008EF2FAE
:1001CE00FFED33FD4007985006D5F0F222C398FD9F
:0501DE000FD5F0EA223C
:1001E30075F008758200EF2FFFEE33FECD33CDCCD3
:1001F30033CCC58233C5829BED9AEC99E582984056
:100203000CF582EE9BFEED9AFDEC99FC0FD5F0D632
:10021300E4CEFBE4CDFAE4CCF9A88222B800C1B95C
:100223000059BA002DEC8BF084CFCECDFCE5F0CB9A
:10023300F97818EF2FFFEE33FEED33FDEC33FCEBD3
:1002430033FB10D703994004EB99FB0FD8E5E4F98E
:10025300FA227818EF2FFFEE33FEED33FDEC33FC7B
:10026300C933C910D7059BE99A4007EC9BFCE99A6F
:10027300F90FD8E0E4C9FAE4CCFB2275F010EF2FB4
:10028300FFEE33FEED33FDCC33CCC833C810D707B4
:100293009BEC9AE899400AED9BFDEC9AFCE899F8EF
:0E02A3000FD5F0DAE4CDFBE4CCFAE4C8F92282
:1002B100EC8EF0A4CCC5F0CCCDF8EFA4CEC5F02DDA
:1002C100FDE43CFCE8A42EC8C5F03DFDE43CFCEF98
:0D02D100A4FFE5F028FEE43DFDE43CFC2226
:00000001FF
